S011000074656C6570686F6E652E737265634F
S11300000EC028C027C026C025C024C023C022C0DB
S113001021C020C075C11EC01DC01CC01BC011243E
S11300201FBECFE5D1E0DEBFCDBF10E0A0E6B0E05B
S1130030E6E7F4E002C005900D92A036B107D9F7C7
S113004020E0A0E6B0E001C01D92AA37B207E1F7B4
S113005002D00FC2D5CF17BA18BA36D092D082E3E5
S1130060B99AC19AE9EFF0E03197F1F700C00000C6
S1130070B99AC198E9EFF0E03197F1F700C00000B8
S1130080815071F7B998C198B898C098BB98C39A31
S1130090BC98C49AB3990DC0BA9AC29A3ED0B99882
S11300A0C198B49904C084EF91E053D0F3CF43D006
S11300B0F1CFBA9AC2983FD0B49904C088EE93E0C5
S11300C014D0E8CF2AD0E6CF82E08ABD81E083BF96
S11300D08FEF89BDB89A0895789489B7806189BFF4
S11300E0089589B78F7E89BF0895CF93DF93EC017C
S11300F0B99AC198F1DF81E0809373009E0140E0DA
S113010050E061EA77E080E090E075D130936E00D2
S113011020936D00DF91CF91089510927300B99AE6
S1130120C19880917300811105C08091770081117D
S113013001C0D7CF089510927700B898C0988091E5
S11301407300811105C080917700811101C0C9CF6E
S11301500895CF93DF93EC01B89AC098BDDF81E096
S1130160809377009E0140E050E061EA77E080E010
S113017090E041D13093650020936400DF91CF91EA
S11301800895109268001092670010927300109204
S1130190760010927500109277000895CF92DF9246
S11301A0EF92FF92CF93DF93C0906F00D0907000D6
S11301B0E0907100F09072008FEFC81AD80AE80A34
S11301C0F80AC0926F00D0927000E0927100F09231
S11301D07200E0917800F0917900309789F12091D4
S11301E07400822F90E066E070E0F4D08E0F9F1FC1
S11301F0EC0188819981AA81BB81C816D906EA06D7
S1130200FB06F0F010926F001092700010927100D3
S11302101092720080916600281718F481E0820F12
S113022001C080E08093740090E066E070E0D2D07A
S1130230E80FF91F8481958190936E0080936D007F
S1130240DF91CF91FF90EF90DF90CF900895CF9200
S1130250DF92EF92FF92CF93DF93C0906900D0902A
S11302606A00E0906B00F0906C008FEFC81AD80A17
S1130270E80AF80AC0926900D0926A00E0926B0022
S1130280F0926C00E0916000F0916100309789F188
S113029020916200822F90E066E070E09BD08E0F88
S11302A09F1FEC0188819981AA81BB81C816D90658
S11302B0EA06FB06F0F01092690010926A001092B0
S11302C06B0010926C0080916300281718F481E091
S11302D0820F01C080E08093620090E066E070E0ED
S11302E079D0E80FF91F84819581909365008093FC
S11302F06400DF91CF91FF90EF90DF90CF9008954D
S11303001F920F920FB60F9211242F933F934F9386
S11303105F936F937F938F939F93AF93BF93EF9369
S1130320FF938091750090917600019690937600EA
S11303308093750080916700909168000196909376
S11303406800809367002ADF82DF20917500309176
S1130350760080916400909165002817390778F041
S113036080917700882359F01092760010927500DE
S1130370B09903C0B89AC09A02C0B89AC0982091A4
S113038067003091680080916D0090916E0028178D
S1130390390778F080917300882359F0109268002F
S11303A010926700B19903C0B99AC19A02C0B99A70
S11303B0C198FF91EF91BF91AF919F918F917F91E0
S11303C06F915F914F913F912F910F900FBE0F90BE
S11303D01F9018950024552704C0080E591F880F34
S11303E0991F009729F076956795B8F37105B9F7C9
S11303F0802D952F0895052E97FB16F400940FD0A9
S113040057FD05D014D007FC02D046F408C050951F
S11304104095309521953F4F4F4F5F4F08959095EC
S11304208095709561957F4F8F4F9F4F0895A1E2FE
S11304301A2EAA1BBB1BFD010DC0AA1FBB1FEE1F5A
S1130440FF1FA217B307E407F50720F0A21BB30BA5
S1130450E40BF50B661F771F881F991F1A9469F721
S113046060957095809590959B01AC01BD01CF017D
S10904700895F894FFCF8B
S9030000FC
