S011000074656C6570686F6E652E737265634F
S113000058C067C066C065C064C063C062C061C0D8
S113001060C05FC013C15DC05CC05BC05AC0E20475
S11300200500E2040800E2040700E2040500E2041B
S1130030C409E2040900E2040800E2040700E2043F
S11300400500C409C409F4010500F4010200F40127
S11300500100FA000300FA000300FA000300FA00AA
S11300600400FA000300FA000300FA000600FA0094
S11300700400FA000600FA000700FA000500C800B0
S11300800500FA000500FA000500FA000600C800A1
S113009003007D000300FA000200C80003007D0095
S11300A00300C8000300C8000400C8000400C8001E
S11300B0050011241FBECFE5D1E0DEBFCDBF20E097
S11300C0A0E6B0E001C01D92A038B207E1F702D06B
S11300D0CAC196CF17BA18BA36D062D040E068E1E8
S11300E082E590E06AD098D08111FDCF78D0B9989C
S11300F0C198B898C098BB98C39ABC98C49AB3994D
S113010012C0BA9AC29A30D0B998C198B49909C0A9
S11301108CD08111F4CF41E06AE08EE190E065D0AB
S1130120EECF74D0ECCFBA9AC2982CD0B49909C04F
S113013073D08111E4CF41E063E086E490E03DD0E8
S1130140DECF4DD0DCCF82E08ABD81E083BF87EC77
S113015089BDB89A0895789489B7806189BF089554
S113016089B78F7E89BF089510927400B99AC19897
S113017080917400811105C080917D00811101C0BE
S1130180EFDF089510927D00B898C09880917400B4
S1130190811105C080917D00811101C0E1DF0895C6
S11301A010926C0010926B00109274001092780000
S11301B01092770010927D00089521E0209374003E
S11301C0B99AC19890937F0080937E0061506093A8
S11301D06A004093750010927600BDDF0895109276
S11301E07F0010927E00C0DF089521E020937D00FF
S11301F0B89AC09890936100809360006093630004
S113020040936F0010926200A6DF0895109261007F
S113021010926000B7DF089581E020917E00309154
S11302207F00232B09F480E0089581E02091600091
S113023030916100232B09F480E008951F920F92FE
S11302400FB60F9211242F933F938F939F93AF93E5
S1130250BF93EF93FF93809177009091780001967C
S1130260909378008093770080916B0090916C005C
S1130270019690936C0080936B0080917200909132
S113028073000196909373008093720020917E0016
S113029030917F00232B09F441C0209164003091F8
S11302A0650082179307D0F11092730010927200C8
S11302B0E091760080916A00E81708F0B5C0EF5F1E
S11302C0E093760080917500811107C0E11105C0AB
S11302D010927F0010927E00E0E0F0E0EE0FFF1F2E
S11302E0EE0FFF1F80917E0090917F00E80FF91FB1
S11302F080819181A281B381809364009093650091
S1130300A0936600B09367008091660090916700A7
S11303109093710080937000B99AC19880916D0098
S113032090916E00019690936E0080936D002091E1
S1130330600030916100232B09F441C020917900C1
S113034030917A0082179307D0F110926E001092C8
S11303506D00E091620080916300E81708F06DC0C1
S1130360EF5FE093620080916F00811107C0E1119B
S113037005C01092610010926000E0E0F0E0EE0F22
S1130380FF1FEE0FFF1F8091600090916100E80F46
S1130390F91F80819181A281B38180937900909328
S11303A07A00A0937B00B0937C0080917B009091B5
S11303B07C009093690080936800B89AC09820915B
S11303C07700309178008091680090916900281737
S11303D0390778F080917D00882359F010927800D5
S11303E010927700B09903C0B89AC09A02C0B89A24
S11303F0C09820916B0030916C00809170009091B6
S113040071002817390710F1809174008823F1F0E6
S113041010926C0010926B00B19903C0B99AC19A02
S113042015C0B99AC19812C01092760080917500D7
S1130430882309F44DCFE0E050CF10926200809100
S11304406F00882309F495CFE0E098CFFF91EF91F6
S1130450BF91AF919F918F913F912F910F900FBEBC
S10D04600F901F901895F894FFCF39
S9030000FC
